{
  "_format": "hh3-artifact-1",
  "contractName": "Exchange",
  "sourceName": "contracts/Exchange.sol",
  "abi": [
    {
      "inputs": [
        {
          "internalType": "address",
          "name": "registryAddr",
          "type": "address"
        }
      ],
      "stateMutability": "nonpayable",
      "type": "constructor"
    },
    {
      "inputs": [],
      "name": "ECDSAInvalidSignature",
      "type": "error"
    },
    {
      "inputs": [
        {
          "internalType": "uint256",
          "name": "length",
          "type": "uint256"
        }
      ],
      "name": "ECDSAInvalidSignatureLength",
      "type": "error"
    },
    {
      "inputs": [
        {
          "internalType": "bytes32",
          "name": "s",
          "type": "bytes32"
        }
      ],
      "name": "ECDSAInvalidSignatureS",
      "type": "error"
    },
    {
      "inputs": [
        {
          "internalType": "address",
          "name": "owner",
          "type": "address"
        }
      ],
      "name": "OwnableInvalidOwner",
      "type": "error"
    },
    {
      "inputs": [
        {
          "internalType": "address",
          "name": "account",
          "type": "address"
        }
      ],
      "name": "OwnableUnauthorizedAccount",
      "type": "error"
    },
    {
      "anonymous": false,
      "inputs": [
        {
          "indexed": true,
          "internalType": "address",
          "name": "maker",
          "type": "address"
        },
        {
          "indexed": true,
          "internalType": "address",
          "name": "taker",
          "type": "address"
        },
        {
          "indexed": false,
          "internalType": "string",
          "name": "symbolIn",
          "type": "string"
        },
        {
          "indexed": false,
          "internalType": "string",
          "name": "symbolOut",
          "type": "string"
        },
        {
          "indexed": false,
          "internalType": "uint256",
          "name": "amtIn",
          "type": "uint256"
        },
        {
          "indexed": false,
          "internalType": "uint256",
          "name": "amtOut",
          "type": "uint256"
        },
        {
          "indexed": false,
          "internalType": "uint256",
          "name": "makerFilledAmtIn",
          "type": "uint256"
        },
        {
          "indexed": false,
          "internalType": "uint256",
          "name": "takerFilledAmtIn",
          "type": "uint256"
        }
      ],
      "name": "OrderExecuted",
      "type": "event"
    },
    {
      "anonymous": false,
      "inputs": [
        {
          "indexed": true,
          "internalType": "address",
          "name": "previousOwner",
          "type": "address"
        },
        {
          "indexed": true,
          "internalType": "address",
          "name": "newOwner",
          "type": "address"
        }
      ],
      "name": "OwnershipTransferred",
      "type": "event"
    },
    {
      "anonymous": false,
      "inputs": [
        {
          "indexed": false,
          "internalType": "address[]",
          "name": "makers",
          "type": "address[]"
        },
        {
          "indexed": false,
          "internalType": "string[]",
          "name": "symbolsIn",
          "type": "string[]"
        },
        {
          "indexed": false,
          "internalType": "string[]",
          "name": "symbolsOut",
          "type": "string[]"
        },
        {
          "indexed": false,
          "internalType": "uint256[]",
          "name": "fillAmounts",
          "type": "uint256[]"
        },
        {
          "indexed": false,
          "internalType": "uint256",
          "name": "ringSize",
          "type": "uint256"
        }
      ],
      "name": "RingTradeExecuted",
      "type": "event"
    },
    {
      "inputs": [],
      "name": "DOMAIN_SEPARATOR",
      "outputs": [
        {
          "internalType": "bytes32",
          "name": "",
          "type": "bytes32"
        }
      ],
      "stateMutability": "view",
      "type": "function"
    },
    {
      "inputs": [],
      "name": "ORDER_TYPEHASH",
      "outputs": [
        {
          "internalType": "bytes32",
          "name": "",
          "type": "bytes32"
        }
      ],
      "stateMutability": "view",
      "type": "function"
    },
    {
      "inputs": [
        {
          "components": [
            {
              "internalType": "address",
              "name": "createdBy",
              "type": "address"
            },
            {
              "internalType": "string",
              "name": "symbolIn",
              "type": "string"
            },
            {
              "internalType": "string",
              "name": "symbolOut",
              "type": "string"
            },
            {
              "internalType": "uint256",
              "name": "amtIn",
              "type": "uint256"
            },
            {
              "internalType": "uint256",
              "name": "amtOut",
              "type": "uint256"
            },
            {
              "internalType": "uint256",
              "name": "nonce",
              "type": "uint256"
            }
          ],
          "internalType": "struct Exchange.Order",
          "name": "order",
          "type": "tuple"
        }
      ],
      "name": "computeOrderHash",
      "outputs": [
        {
          "internalType": "bytes32",
          "name": "",
          "type": "bytes32"
        }
      ],
      "stateMutability": "view",
      "type": "function"
    },
    {
      "inputs": [
        {
          "components": [
            {
              "components": [
                {
                  "internalType": "address",
                  "name": "createdBy",
                  "type": "address"
                },
                {
                  "internalType": "string",
                  "name": "symbolIn",
                  "type": "string"
                },
                {
                  "internalType": "string",
                  "name": "symbolOut",
                  "type": "string"
                },
                {
                  "internalType": "uint256",
                  "name": "amtIn",
                  "type": "uint256"
                },
                {
                  "internalType": "uint256",
                  "name": "amtOut",
                  "type": "uint256"
                },
                {
                  "internalType": "uint256",
                  "name": "nonce",
                  "type": "uint256"
                }
              ],
              "internalType": "struct Exchange.Order",
              "name": "order",
              "type": "tuple"
            },
            {
              "internalType": "bytes",
              "name": "signature",
              "type": "bytes"
            }
          ],
          "internalType": "struct Exchange.SwapInfo",
          "name": "makerInfo",
          "type": "tuple"
        },
        {
          "components": [
            {
              "components": [
                {
                  "internalType": "address",
                  "name": "createdBy",
                  "type": "address"
                },
                {
                  "internalType": "string",
                  "name": "symbolIn",
                  "type": "string"
                },
                {
                  "internalType": "string",
                  "name": "symbolOut",
                  "type": "string"
                },
                {
                  "internalType": "uint256",
                  "name": "amtIn",
                  "type": "uint256"
                },
                {
                  "internalType": "uint256",
                  "name": "amtOut",
                  "type": "uint256"
                },
                {
                  "internalType": "uint256",
                  "name": "nonce",
                  "type": "uint256"
                }
              ],
              "internalType": "struct Exchange.Order",
              "name": "order",
              "type": "tuple"
            },
            {
              "internalType": "bytes",
              "name": "signature",
              "type": "bytes"
            }
          ],
          "internalType": "struct Exchange.SwapInfo",
          "name": "takerInfo",
          "type": "tuple"
        },
        {
          "internalType": "uint256",
          "name": "fillAmtIn",
          "type": "uint256"
        }
      ],
      "name": "executeOrder",
      "outputs": [],
      "stateMutability": "nonpayable",
      "type": "function"
    },
    {
      "inputs": [
        {
          "components": [
            {
              "internalType": "address",
              "name": "createdBy",
              "type": "address"
            },
            {
              "internalType": "string",
              "name": "symbolIn",
              "type": "string"
            },
            {
              "internalType": "string",
              "name": "symbolOut",
              "type": "string"
            },
            {
              "internalType": "uint256",
              "name": "amtIn",
              "type": "uint256"
            },
            {
              "internalType": "uint256",
              "name": "amtOut",
              "type": "uint256"
            },
            {
              "internalType": "uint256",
              "name": "nonce",
              "type": "uint256"
            }
          ],
          "internalType": "struct Exchange.Order[]",
          "name": "ringOrders",
          "type": "tuple[]"
        },
        {
          "internalType": "uint256[]",
          "name": "fillAmounts",
          "type": "uint256[]"
        }
      ],
      "name": "executeRingTrade",
      "outputs": [],
      "stateMutability": "nonpayable",
      "type": "function"
    },
    {
      "inputs": [
        {
          "internalType": "address",
          "name": "",
          "type": "address"
        },
        {
          "internalType": "uint256",
          "name": "",
          "type": "uint256"
        }
      ],
      "name": "filledOrdersAmtIn",
      "outputs": [
        {
          "internalType": "uint256",
          "name": "",
          "type": "uint256"
        }
      ],
      "stateMutability": "view",
      "type": "function"
    },
    {
      "inputs": [
        {
          "internalType": "address",
          "name": "createdBy",
          "type": "address"
        },
        {
          "internalType": "uint256",
          "name": "nonce",
          "type": "uint256"
        },
        {
          "internalType": "uint256",
          "name": "originalAmtIn",
          "type": "uint256"
        }
      ],
      "name": "getRemainingAmt",
      "outputs": [
        {
          "internalType": "uint256",
          "name": "",
          "type": "uint256"
        }
      ],
      "stateMutability": "view",
      "type": "function"
    },
    {
      "inputs": [],
      "name": "owner",
      "outputs": [
        {
          "internalType": "address",
          "name": "",
          "type": "address"
        }
      ],
      "stateMutability": "view",
      "type": "function"
    },
    {
      "inputs": [],
      "name": "renounceOwnership",
      "outputs": [],
      "stateMutability": "nonpayable",
      "type": "function"
    },
    {
      "inputs": [],
      "name": "symbolRegistry",
      "outputs": [
        {
          "internalType": "contract ITokenRegistry",
          "name": "",
          "type": "address"
        }
      ],
      "stateMutability": "view",
      "type": "function"
    },
    {
      "inputs": [
        {
          "internalType": "address",
          "name": "newOwner",
          "type": "address"
        }
      ],
      "name": "transferOwnership",
      "outputs": [],
      "stateMutability": "nonpayable",
      "type": "function"
    }
  ],
  "bytecode": "0x608060405234801561000f575f5ffd5b50604051613133380380613133833981810160405281019061003191906102e4565b335f73ffffffffffffffffffffffffffffffffffffffff168173ffffffffffffffffffffffffffffffffffffffff16036100a2575f6040517f1e4fbdf7000000000000000000000000000000000000000000000000000000008152600401610099919061031e565b60405180910390fd5b6100b1816101c560201b60201c565b508060015f6101000a81548173ffffffffffffffffffffffffffffffffffffffff021916908373ffffffffffffffffffffffffffffffffffffffff1602179055507f8b73c3c69bb8fe3d512ecc4cf759cc79239f7b179b0ffacaa9a75d522b39400f6040518060400160405280600881526020017f536d617368444558000000000000000000000000000000000000000000000000815250805190602001206040518060400160405280600181526020017f31000000000000000000000000000000000000000000000000000000000000008152508051906020012046306040516020016101a3959493929190610367565b60405160208183030381529060405280519060200120600381905550506103b8565b5f5f5f9054906101000a900473ffffffffffffffffffffffffffffffffffffffff169050815f5f6101000a81548173ffffffffffffffffffffffffffffffffffffffff021916908373ffffffffffffffffffffffffffffffffffffffff1602179055508173ffffffffffffffffffffffffffffffffffffffff168173ffffffffffffffffffffffffffffffffffffffff167f8be0079c531659141344cd1fd0a4f28419497f9722a3daafe3b4186f6b6457e060405160405180910390a35050565b5f5ffd5b5f73ffffffffffffffffffffffffffffffffffffffff82169050919050565b5f6102b38261028a565b9050919050565b6102c3816102a9565b81146102cd575f5ffd5b50565b5f815190506102de816102ba565b92915050565b5f602082840312156102f9576102f8610286565b5b5f610306848285016102d0565b91505092915050565b610318816102a9565b82525050565b5f6020820190506103315f83018461030f565b92915050565b5f819050919050565b61034981610337565b82525050565b5f819050919050565b6103618161034f565b82525050565b5f60a08201905061037a5f830188610340565b6103876020830187610340565b6103946040830186610340565b6103a16060830185610358565b6103ae608083018461030f565b9695505050505050565b612d6e806103c55f395ff3fe608060405234801561000f575f5ffd5b50600436106100a7575f3560e01c80638da5cb5b1161006f5780638da5cb5b1461014f578063944c33b51461016d5780639d3e59381461019d578063f0ca0e1a146101bb578063f2fde38b146101d7578063f973a209146101f3576100a7565b80633644e515146100ab5780633cb2d502146100c95780636fba18e2146100f9578063715018a6146101295780637286df2314610133575b5f5ffd5b6100b3610211565b6040516100c09190611905565b60405180910390f35b6100e360048036038101906100de91906119bc565b610217565b6040516100f09190611a09565b60405180910390f35b610113600480360381019061010e9190611c3b565b610237565b6040516101209190611905565b60405180910390f35b6101316102e6565b005b61014d60048036038101906101489190611d34565b6102f9565b005b61015761093c565b6040516101649190611dc1565b60405180910390f35b61018760048036038101906101829190611dda565b610963565b6040516101949190611a09565b60405180910390f35b6101a5610a0d565b6040516101b29190611e85565b60405180910390f35b6101d560048036038101906101d09190611ec0565b610a32565b005b6101f160048036038101906101ec9190611f48565b610ef4565b005b6101fb610f78565b6040516102089190611905565b60405180910390f35b60035481565b6002602052815f5260405f20602052805f5260405f205f91509150505481565b5f5f7fa5a6634eaf57137ebd5b94312c778fcbff1e3880b1a91127bef7bc3dd37eb0f3835f0151846020015180519060200120856040015180519060200120866060015187608001518860a0015160405160200161029b9796959493929190611f73565b604051602081830303815290604052805190602001209050600354816040516020016102c8929190612054565b60405160208183030381529060405280519060200120915050919050565b6102ee610f9c565b6102f75f611023565b565b610301610f9c565b818190508484905014610349576040517f08c379a0000000000000000000000000000000000000000000000000000000008152600401610340906120e4565b60405180910390fd5b5f5f90505b8484905081101561062e575f8585905060018361036b919061212f565b610375919061218f565b90503686868481811061038b5761038a6121bf565b5b905060200281019061039d91906121f8565b9050368787848181106103b3576103b26121bf565b5b90506020028101906103c591906121f8565b90505f60015f9054906101000a900473ffffffffffffffffffffffffffffffffffffffff1673ffffffffffffffffffffffffffffffffffffffff1663c4091236848060400190610415919061221f565b6040518363ffffffff1660e01b81526004016104329291906122ad565b602060405180830381865afa15801561044d573d5f5f3e3d5ffd5b505050506040513d601f19601f8201168201806040525081019061047191906122e3565b90505f83606001358460800135898989818110610491576104906121bf565b5b905060200201356104a2919061230e565b6104ac919061234f565b90508173ffffffffffffffffffffffffffffffffffffffff166323b872dd855f0160208101906104dc9190611f48565b855f0160208101906104ee9190611f48565b846040518463ffffffff1660e01b815260040161050d9392919061237f565b6020604051808303815f875af1158015610529573d5f5f3e3d5ffd5b505050506040513d601f19601f8201168201806040525081019061054d91906123e9565b61058c576040517f08c379a00000000000000000000000000000000000000000000000000000000081526004016105839061245e565b60405180910390fd5b87878781811061059f5761059e6121bf565b5b9050602002013560025f865f0160208101906105bb9190611f48565b73ffffffffffffffffffffffffffffffffffffffff1673ffffffffffffffffffffffffffffffffffffffff1681526020019081526020015f205f8660a0013581526020019081526020015f205f828254610615919061212f565b925050819055505050505050808060010191505061034e565b505f8484905067ffffffffffffffff81111561064d5761064c611a36565b5b60405190808252806020026020018201604052801561067b5781602001602082028036833780820191505090505b5090505f8585905067ffffffffffffffff81111561069c5761069b611a36565b5b6040519080825280602002602001820160405280156106cf57816020015b60608152602001906001900390816106ba5790505b5090505f8686905067ffffffffffffffff8111156106f0576106ef611a36565b5b60405190808252806020026020018201604052801561072357816020015b606081526020019060019003908161070e5790505b5090505f5f90505b878790508110156108ee57878782818110610749576107486121bf565b5b905060200281019061075b91906121f8565b5f01602081019061076c9190611f48565b84828151811061077f5761077e6121bf565b5b602002602001019073ffffffffffffffffffffffffffffffffffffffff16908173ffffffffffffffffffffffffffffffffffffffff16815250508787828181106107cc576107cb6121bf565b5b90506020028101906107de91906121f8565b80602001906107ed919061221f565b8080601f0160208091040260200160405190810160405280939291908181526020018383808284375f81840152601f19601f82011690508083019250505050505050838281518110610842576108416121bf565b5b60200260200101819052508787828181106108605761085f6121bf565b5b905060200281019061087291906121f8565b8060400190610881919061221f565b8080601f0160208091040260200160405190810160405280939291908181526020018383808284375f81840152601f19601f820116905080830192505050505050508282815181106108d6576108d56121bf565b5b6020026020010181905250808060010191505061072b565b507f90385986829d7b58d2bb51c1a6cb4d15db99a9321036fed7b9c18d5858d785d283838388888c8c905060405161092b969594939291906126c6565b60405180910390a150505050505050565b5f5f5f9054906101000a900473ffffffffffffffffffffffffffffffffffffffff16905090565b5f5f60025f8673ffffffffffffffffffffffffffffffffffffffff1673ffffffffffffffffffffffffffffffffffffffff1681526020019081526020015f205f8581526020019081526020015f20549050828111156109f7576040517f08c379a00000000000000000000000000000000000000000000000000000000081526004016109ee9061277f565b60405180910390fd5b8083610a03919061279d565b9150509392505050565b60015f9054906101000a900473ffffffffffffffffffffffffffffffffffffffff1681565b5f604051806040016040528060015f9054906101000a900473ffffffffffffffffffffffffffffffffffffffff1673ffffffffffffffffffffffffffffffffffffffff1663c409123687805f0190610a8a91906121f8565b8060400190610a99919061221f565b6040518363ffffffff1660e01b8152600401610ab69291906122ad565b602060405180830381865afa158015610ad1573d5f5f3e3d5ffd5b505050506040513d601f19601f82011682018060405250810190610af591906122e3565b73ffffffffffffffffffffffffffffffffffffffff16815260200160015f9054906101000a900473ffffffffffffffffffffffffffffffffffffffff1673ffffffffffffffffffffffffffffffffffffffff1663c409123686805f0190610b5c91906121f8565b8060400190610b6b919061221f565b6040518363ffffffff1660e01b8152600401610b889291906122ad565b602060405180830381865afa158015610ba3573d5f5f3e3d5ffd5b505050506040513d601f19601f82011682018060405250810190610bc791906122e3565b73ffffffffffffffffffffffffffffffffffffffff168152509050610c2984805f0190610bf491906121f8565b858060200190610c0491906127d0565b86805f0190610c1391906121f8565b878060200190610c2391906127d0565b886110e4565b5f84805f0190610c3991906121f8565b6060013585805f0190610c4c91906121f8565b6080013584610c5b919061230e565b610c65919061234f565b90508260025f87805f0190610c7a91906121f8565b5f016020810190610c8b9190611f48565b73ffffffffffffffffffffffffffffffffffffffff1673ffffffffffffffffffffffffffffffffffffffff1681526020019081526020015f205f87805f0190610cd491906121f8565b60a0013581526020019081526020015f205f828254610cf3919061212f565b925050819055508060025f86805f0190610d0d91906121f8565b5f016020810190610d1e9190611f48565b73ffffffffffffffffffffffffffffffffffffffff1673ffffffffffffffffffffffffffffffffffffffff1681526020019081526020015f205f86805f0190610d6791906121f8565b60a0013581526020019081526020015f205f828254610d86919061212f565b92505081905550610de085805f0190610d9f91906121f8565b5f016020810190610db09190611f48565b835f015186805f0190610dc391906121f8565b5f016020810190610dd49190611f48565b85602001518786611122565b83805f0190610def91906121f8565b5f016020810190610e009190611f48565b73ffffffffffffffffffffffffffffffffffffffff1685805f0190610e2591906121f8565b5f016020810190610e369190611f48565b73ffffffffffffffffffffffffffffffffffffffff167fdee30dc7563c9f9f2d092f5db2c7f7a76a0e16551b7c98febc1f8106d1aa128e87805f0190610e7c91906121f8565b8060200190610e8b919061221f565b89805f0190610e9a91906121f8565b8060400190610ea9919061221f565b8b805f0190610eb891906121f8565b606001358c805f0190610ecb91906121f8565b608001358b8a604051610ee5989796959493929190612832565b60405180910390a35050505050565b610efc610f9c565b5f73ffffffffffffffffffffffffffffffffffffffff168173ffffffffffffffffffffffffffffffffffffffff1603610f6c575f6040517f1e4fbdf7000000000000000000000000000000000000000000000000000000008152600401610f639190611dc1565b60405180910390fd5b610f7581611023565b50565b7fa5a6634eaf57137ebd5b94312c778fcbff1e3880b1a91127bef7bc3dd37eb0f381565b610fa46112a2565b73ffffffffffffffffffffffffffffffffffffffff16610fc261093c565b73ffffffffffffffffffffffffffffffffffffffff161461102157610fe56112a2565b6040517f118cdaa70000000000000000000000000000000000000000000000000000000081526004016110189190611dc1565b60405180910390fd5b565b5f5f5f9054906101000a900473ffffffffffffffffffffffffffffffffffffffff169050815f5f6101000a81548173ffffffffffffffffffffffffffffffffffffffff021916908373ffffffffffffffffffffffffffffffffffffffff1602179055508173ffffffffffffffffffffffffffffffffffffffff168173ffffffffffffffffffffffffffffffffffffffff167f8be0079c531659141344cd1fd0a4f28419497f9722a3daafe3b4186f6b6457e060405160405180910390a35050565b6110ef8787876112a9565b6110fa8484846112a9565b6111048785611394565b61110e8785611479565b6111198785836114e5565b50505050505050565b8473ffffffffffffffffffffffffffffffffffffffff166323b872dd8786846040518463ffffffff1660e01b815260040161115f9392919061237f565b6020604051808303815f875af115801561117b573d5f5f3e3d5ffd5b505050506040513d601f19601f8201168201806040525081019061119f91906123e9565b6111de576040517f08c379a00000000000000000000000000000000000000000000000000000000081526004016111d5906128ed565b60405180910390fd5b8273ffffffffffffffffffffffffffffffffffffffff166323b872dd8588856040518463ffffffff1660e01b815260040161121b9392919061237f565b6020604051808303815f875af1158015611237573d5f5f3e3d5ffd5b505050506040513d601f19601f8201168201806040525081019061125b91906123e9565b61129a576040517f08c379a000000000000000000000000000000000000000000000000000000000815260040161129190612955565b60405180910390fd5b505050505050565b5f33905090565b5f6112bc846112b790612973565b610237565b90505f61130c8285858080601f0160208091040260200160405190810160405280939291908181526020018383808284375f81840152601f19601f82011690508083019250505050505050611625565b9050845f0160208101906113209190611f48565b73ffffffffffffffffffffffffffffffffffffffff168173ffffffffffffffffffffffffffffffffffffffff161461138d576040517f08c379a0000000000000000000000000000000000000000000000000000000008152600401611384906129cf565b60405180910390fd5b5050505050565b8080604001906113a4919061221f565b6040516113b2929190612a1b565b60405180910390208280602001906113ca919061221f565b6040516113d8929190612a1b565b604051809103902014801561143657508080602001906113f8919061221f565b604051611406929190612a1b565b604051809103902082806040019061141e919061221f565b60405161142c929190612a1b565b6040518091039020145b611475576040517f08c379a000000000000000000000000000000000000000000000000000000000815260040161146c90612a7d565b60405180910390fd5b5050565b8060800135826080013561148d919061230e565b816060013583606001356114a1919061230e565b146114e1576040517f08c379a00000000000000000000000000000000000000000000000000000000081526004016114d890612ae5565b60405180910390fd5b5050565b5f61150a845f0160208101906114fb9190611f48565b8560a001358660600135610963565b90505f8460600135856080013584611522919061230e565b61152c919061234f565b90505f611553855f0160208101906115449190611f48565b8660a001358760600135610963565b90505f8411611597576040517f08c379a000000000000000000000000000000000000000000000000000000000815260040161158e90612b73565b60405180910390fd5b828411156115da576040517f08c379a00000000000000000000000000000000000000000000000000000000081526004016115d190612c01565b60405180910390fd5b8082111561161d576040517f08c379a000000000000000000000000000000000000000000000000000000000815260040161161490612c8f565b60405180910390fd5b505050505050565b5f5f5f5f611633868661164f565b92509250925061164382826116a4565b82935050505092915050565b5f5f5f604184510361168f575f5f5f602087015192506040870151915060608701515f1a905061168188828585611806565b95509550955050505061169d565b5f600285515f1b9250925092505b9250925092565b5f60038111156116b7576116b6612cad565b5b8260038111156116ca576116c9612cad565b5b031561180257600160038111156116e4576116e3612cad565b5b8260038111156116f7576116f6612cad565b5b0361172e576040517ff645eedf00000000000000000000000000000000000000000000000000000000815260040160405180910390fd5b6002600381111561174257611741612cad565b5b82600381111561175557611754612cad565b5b0361179957805f1c6040517ffce698f70000000000000000000000000000000000000000000000000000000081526004016117909190611a09565b60405180910390fd5b6003808111156117ac576117ab612cad565b5b8260038111156117bf576117be612cad565b5b0361180157806040517fd78bce0c0000000000000000000000000000000000000000000000000000000081526004016117f89190611905565b60405180910390fd5b5b5050565b5f5f5f7f7fffffffffffffffffffffffffffffff5d576e7357a4501ddfe92f46681b20a0845f1c1115611842575f6003859250925092506118e3565b5f6001888888886040515f81526020016040526040516118659493929190612cf5565b6020604051602081039080840390855afa158015611885573d5f5f3e3d5ffd5b5050506020604051035190505f73ffffffffffffffffffffffffffffffffffffffff168173ffffffffffffffffffffffffffffffffffffffff16036118d6575f60015f5f1b935093509350506118e3565b805f5f5f1b935093509350505b9450945094915050565b5f819050919050565b6118ff816118ed565b82525050565b5f6020820190506119185f8301846118f6565b92915050565b5f604051905090565b5f5ffd5b5f5ffd5b5f73ffffffffffffffffffffffffffffffffffffffff82169050919050565b5f6119588261192f565b9050919050565b6119688161194e565b8114611972575f5ffd5b50565b5f813590506119838161195f565b92915050565b5f819050919050565b61199b81611989565b81146119a5575f5ffd5b50565b5f813590506119b681611992565b92915050565b5f5f604083850312156119d2576119d1611927565b5b5f6119df85828601611975565b92505060206119f0858286016119a8565b9150509250929050565b611a0381611989565b82525050565b5f602082019050611a1c5f8301846119fa565b92915050565b5f5ffd5b5f601f19601f8301169050919050565b7f4e487b71000000000000000000000000000000000000000000000000000000005f52604160045260245ffd5b611a6c82611a26565b810181811067ffffffffffffffff82111715611a8b57611a8a611a36565b5b80604052505050565b5f611a9d61191e565b9050611aa98282611a63565b919050565b5f5ffd5b5f5ffd5b5f5ffd5b5f67ffffffffffffffff821115611ad457611ad3611a36565b5b611add82611a26565b9050602081019050919050565b828183375f83830152505050565b5f611b0a611b0584611aba565b611a94565b905082815260208101848484011115611b2657611b25611ab6565b5b611b31848285611aea565b509392505050565b5f82601f830112611b4d57611b4c611ab2565b5b8135611b5d848260208601611af8565b91505092915050565b5f60c08284031215611b7b57611b7a611a22565b5b611b8560c0611a94565b90505f611b9484828501611975565b5f83015250602082013567ffffffffffffffff811115611bb757611bb6611aae565b5b611bc384828501611b39565b602083015250604082013567ffffffffffffffff811115611be757611be6611aae565b5b611bf384828501611b39565b6040830152506060611c07848285016119a8565b6060830152506080611c1b848285016119a8565b60808301525060a0611c2f848285016119a8565b60a08301525092915050565b5f60208284031215611c5057611c4f611927565b5b5f82013567ffffffffffffffff811115611c6d57611c6c61192b565b5b611c7984828501611b66565b91505092915050565b5f5ffd5b5f5ffd5b5f5f83601f840112611c9f57611c9e611ab2565b5b8235905067ffffffffffffffff811115611cbc57611cbb611c82565b5b602083019150836020820283011115611cd857611cd7611c86565b5b9250929050565b5f5f83601f840112611cf457611cf3611ab2565b5b8235905067ffffffffffffffff811115611d1157611d10611c82565b5b602083019150836020820283011115611d2d57611d2c611c86565b5b9250929050565b5f5f5f5f60408587031215611d4c57611d4b611927565b5b5f85013567ffffffffffffffff811115611d6957611d6861192b565b5b611d7587828801611c8a565b9450945050602085013567ffffffffffffffff811115611d9857611d9761192b565b5b611da487828801611cdf565b925092505092959194509250565b611dbb8161194e565b82525050565b5f602082019050611dd45f830184611db2565b92915050565b5f5f5f60608486031215611df157611df0611927565b5b5f611dfe86828701611975565b9350506020611e0f868287016119a8565b9250506040611e20868287016119a8565b9150509250925092565b5f819050919050565b5f611e4d611e48611e438461192f565b611e2a565b61192f565b9050919050565b5f611e5e82611e33565b9050919050565b5f611e6f82611e54565b9050919050565b611e7f81611e65565b82525050565b5f602082019050611e985f830184611e76565b92915050565b5f5ffd5b5f60408284031215611eb757611eb6611e9e565b5b81905092915050565b5f5f5f60608486031215611ed757611ed6611927565b5b5f84013567ffffffffffffffff811115611ef457611ef361192b565b5b611f0086828701611ea2565b935050602084013567ffffffffffffffff811115611f2157611f2061192b565b5b611f2d86828701611ea2565b9250506040611f3e868287016119a8565b9150509250925092565b5f60208284031215611f5d57611f5c611927565b5b5f611f6a84828501611975565b91505092915050565b5f60e082019050611f865f83018a6118f6565b611f936020830189611db2565b611fa060408301886118f6565b611fad60608301876118f6565b611fba60808301866119fa565b611fc760a08301856119fa565b611fd460c08301846119fa565b98975050505050505050565b5f81905092915050565b7f19010000000000000000000000000000000000000000000000000000000000005f82015250565b5f61201e600283611fe0565b915061202982611fea565b600282019050919050565b5f819050919050565b61204e612049826118ed565b612034565b82525050565b5f61205e82612012565b915061206a828561203d565b60208201915061207a828461203d565b6020820191508190509392505050565b5f82825260208201905092915050565b7f4c656e677468206d69736d6174636800000000000000000000000000000000005f82015250565b5f6120ce600f8361208a565b91506120d98261209a565b602082019050919050565b5f6020820190508181035f8301526120fb816120c2565b9050919050565b7f4e487b71000000000000000000000000000000000000000000000000000000005f52601160045260245ffd5b5f61213982611989565b915061214483611989565b925082820190508082111561215c5761215b612102565b5b92915050565b7f4e487b71000000000000000000000000000000000000000000000000000000005f52601260045260245ffd5b5f61219982611989565b91506121a483611989565b9250826121b4576121b3612162565b5b828206905092915050565b7f4e487b71000000000000000000000000000000000000000000000000000000005f52603260045260245ffd5b5f5ffd5b5f5ffd5b5f5ffd5b5f8235600160c003833603038112612213576122126121ec565b5b80830191505092915050565b5f5f8335600160200384360303811261223b5761223a6121ec565b5b80840192508235915067ffffffffffffffff82111561225d5761225c6121f0565b5b602083019250600182023603831315612279576122786121f4565b5b509250929050565b5f61228c838561208a565b9350612299838584611aea565b6122a283611a26565b840190509392505050565b5f6020820190508181035f8301526122c6818486612281565b90509392505050565b5f815190506122dd8161195f565b92915050565b5f602082840312156122f8576122f7611927565b5b5f612305848285016122cf565b91505092915050565b5f61231882611989565b915061232383611989565b925082820261233181611989565b9150828204841483151761234857612347612102565b5b5092915050565b5f61235982611989565b915061236483611989565b92508261237457612373612162565b5b828204905092915050565b5f6060820190506123925f830186611db2565b61239f6020830185611db2565b6123ac60408301846119fa565b949350505050565b5f8115159050919050565b6123c8816123b4565b81146123d2575f5ffd5b50565b5f815190506123e3816123bf565b92915050565b5f602082840312156123fe576123fd611927565b5b5f61240b848285016123d5565b91505092915050565b7f52696e67207472616e73666572206661696c65640000000000000000000000005f82015250565b5f61244860148361208a565b915061245382612414565b602082019050919050565b5f6020820190508181035f8301526124758161243c565b9050919050565b5f81519050919050565b5f82825260208201905092915050565b5f819050602082019050919050565b6124ae8161194e565b82525050565b5f6124bf83836124a5565b60208301905092915050565b5f602082019050919050565b5f6124e18261247c565b6124eb8185612486565b93506124f683612496565b805f5b8381101561252657815161250d88826124b4565b9750612518836124cb565b9250506001810190506124f9565b5085935050505092915050565b5f81519050919050565b5f82825260208201905092915050565b5f819050602082019050919050565b5f81519050919050565b5f82825260208201905092915050565b8281835e5f83830152505050565b5f61258e8261255c565b6125988185612566565b93506125a8818560208601612576565b6125b181611a26565b840191505092915050565b5f6125c78383612584565b905092915050565b5f602082019050919050565b5f6125e582612533565b6125ef818561253d565b9350836020820285016126018561254d565b805f5b8581101561263c578484038952815161261d85826125bc565b9450612628836125cf565b925060208a01995050600181019050612604565b50829750879550505050505092915050565b5f82825260208201905092915050565b5f5ffd5b82818337505050565b5f612676838561264e565b93507f07ffffffffffffffffffffffffffffffffffffffffffffffffffffffffffffff8311156126a9576126a861265e565b5b6020830292506126ba838584612662565b82840190509392505050565b5f60a0820190508181035f8301526126de81896124d7565b905081810360208301526126f281886125db565b9050818103604083015261270681876125db565b9050818103606083015261271b81858761266b565b905061272a60808301846119fa565b979650505050505050565b7f46696c6c656420616d6f756e742065786365656473206f726967696e616c00005f82015250565b5f612769601e8361208a565b915061277482612735565b602082019050919050565b5f6020820190508181035f8301526127968161275d565b9050919050565b5f6127a782611989565b91506127b283611989565b92508282039050818111156127ca576127c9612102565b5b92915050565b5f5f833560016020038436030381126127ec576127eb6121ec565b5b80840192508235915067ffffffffffffffff82111561280e5761280d6121f0565b5b60208301925060018202360383131561282a576128296121f4565b5b509250929050565b5f60c0820190508181035f83015261284b818a8c612281565b9050818103602083015261286081888a612281565b905061286f60408301876119fa565b61287c60608301866119fa565b61288960808301856119fa565b61289660a08301846119fa565b9998505050505050505050565b7f4d616b6572205472616e73666572206661696c000000000000000000000000005f82015250565b5f6128d760138361208a565b91506128e2826128a3565b602082019050919050565b5f6020820190508181035f830152612904816128cb565b9050919050565b7f54616b6572205472616e73666572206661696c000000000000000000000000005f82015250565b5f61293f60138361208a565b915061294a8261290b565b602082019050919050565b5f6020820190508181035f83015261296c81612933565b9050919050565b5f61297e3683611b66565b9050919050565b7f496e76616c6964206f72646572207369676e61747572650000000000000000005f82015250565b5f6129b960178361208a565b91506129c482612985565b602082019050919050565b5f6020820190508181035f8301526129e6816129ad565b9050919050565b5f81905092915050565b5f612a0283856129ed565b9350612a0f838584611aea565b82840190509392505050565b5f612a278284866129f7565b91508190509392505050565b7f546f6b656e206d69736d617463680000000000000000000000000000000000005f82015250565b5f612a67600e8361208a565b9150612a7282612a33565b602082019050919050565b5f6020820190508181035f830152612a9481612a5b565b9050919050565b7f5072696365206d69736d617463680000000000000000000000000000000000005f82015250565b5f612acf600e8361208a565b9150612ada82612a9b565b602082019050919050565b5f6020820190508181035f830152612afc81612ac3565b9050919050565b7f46696c6c20616d6f756e74206d7573742062652067726561746572207468616e5f8201527f2030000000000000000000000000000000000000000000000000000000000000602082015250565b5f612b5d60228361208a565b9150612b6882612b03565b604082019050919050565b5f6020820190508181035f830152612b8a81612b51565b9050919050565b7f46696c6c20616d6f756e742065786365656473206d616b657227732072656d615f8201527f696e696e67206f72646572000000000000000000000000000000000000000000602082015250565b5f612beb602b8361208a565b9150612bf682612b91565b604082019050919050565b5f6020820190508181035f830152612c1881612bdf565b9050919050565b7f46696c6c20616d6f756e7420657863656564732074616b657227732072656d615f8201527f696e696e67206f72646572000000000000000000000000000000000000000000602082015250565b5f612c79602b8361208a565b9150612c8482612c1f565b604082019050919050565b5f6020820190508181035f830152612ca681612c6d565b9050919050565b7f4e487b71000000000000000000000000000000000000000000000000000000005f52602160045260245ffd5b5f60ff82169050919050565b612cef81612cda565b82525050565b5f608082019050612d085f8301876118f6565b612d156020830186612ce6565b612d2260408301856118f6565b612d2f60608301846118f6565b9594505050505056fea2646970667358221220aec683eaed4d224cb707d77d746db05d40143f6a8d60c5a0b116c6679390d4fb64736f6c634300081c0033",
  "linkReferences": {},
  "deployedLinkReferences": {},
  "immutableReferences": {},
  "inputSourceName": "project/contracts/Exchange.sol",
  "buildInfoId": "solc-0_8_28-95aee03304a1c12f7c3a6f873c653fff42c793c6"
}