{
  "_format": "hh3-artifact-1",
  "contractName": "GenericToken",
  "sourceName": "contracts/GenericToken.sol",
  "abi": [
    {
      "inputs": [
        {
          "internalType": "string",
          "name": "name_",
          "type": "string"
        },
        {
          "internalType": "string",
          "name": "symbol_",
          "type": "string"
        },
        {
          "internalType": "uint256",
          "name": "initialSupply",
          "type": "uint256"
        }
      ],
      "stateMutability": "nonpayable",
      "type": "constructor"
    },
    {
      "inputs": [],
      "name": "ECDSAInvalidSignature",
      "type": "error"
    },
    {
      "inputs": [
        {
          "internalType": "uint256",
          "name": "length",
          "type": "uint256"
        }
      ],
      "name": "ECDSAInvalidSignatureLength",
      "type": "error"
    },
    {
      "inputs": [
        {
          "internalType": "bytes32",
          "name": "s",
          "type": "bytes32"
        }
      ],
      "name": "ECDSAInvalidSignatureS",
      "type": "error"
    },
    {
      "inputs": [
        {
          "internalType": "address",
          "name": "spender",
          "type": "address"
        },
        {
          "internalType": "uint256",
          "name": "allowance",
          "type": "uint256"
        },
        {
          "internalType": "uint256",
          "name": "needed",
          "type": "uint256"
        }
      ],
      "name": "ERC20InsufficientAllowance",
      "type": "error"
    },
    {
      "inputs": [
        {
          "internalType": "address",
          "name": "sender",
          "type": "address"
        },
        {
          "internalType": "uint256",
          "name": "balance",
          "type": "uint256"
        },
        {
          "internalType": "uint256",
          "name": "needed",
          "type": "uint256"
        }
      ],
      "name": "ERC20InsufficientBalance",
      "type": "error"
    },
    {
      "inputs": [
        {
          "internalType": "address",
          "name": "approver",
          "type": "address"
        }
      ],
      "name": "ERC20InvalidApprover",
      "type": "error"
    },
    {
      "inputs": [
        {
          "internalType": "address",
          "name": "receiver",
          "type": "address"
        }
      ],
      "name": "ERC20InvalidReceiver",
      "type": "error"
    },
    {
      "inputs": [
        {
          "internalType": "address",
          "name": "sender",
          "type": "address"
        }
      ],
      "name": "ERC20InvalidSender",
      "type": "error"
    },
    {
      "inputs": [
        {
          "internalType": "address",
          "name": "spender",
          "type": "address"
        }
      ],
      "name": "ERC20InvalidSpender",
      "type": "error"
    },
    {
      "inputs": [
        {
          "internalType": "uint256",
          "name": "deadline",
          "type": "uint256"
        }
      ],
      "name": "ERC2612ExpiredSignature",
      "type": "error"
    },
    {
      "inputs": [
        {
          "internalType": "address",
          "name": "signer",
          "type": "address"
        },
        {
          "internalType": "address",
          "name": "owner",
          "type": "address"
        }
      ],
      "name": "ERC2612InvalidSigner",
      "type": "error"
    },
    {
      "inputs": [
        {
          "internalType": "address",
          "name": "account",
          "type": "address"
        },
        {
          "internalType": "uint256",
          "name": "currentNonce",
          "type": "uint256"
        }
      ],
      "name": "InvalidAccountNonce",
      "type": "error"
    },
    {
      "inputs": [],
      "name": "InvalidShortString",
      "type": "error"
    },
    {
      "inputs": [
        {
          "internalType": "address",
          "name": "owner",
          "type": "address"
        }
      ],
      "name": "OwnableInvalidOwner",
      "type": "error"
    },
    {
      "inputs": [
        {
          "internalType": "address",
          "name": "account",
          "type": "address"
        }
      ],
      "name": "OwnableUnauthorizedAccount",
      "type": "error"
    },
    {
      "inputs": [
        {
          "internalType": "string",
          "name": "str",
          "type": "string"
        }
      ],
      "name": "StringTooLong",
      "type": "error"
    },
    {
      "anonymous": false,
      "inputs": [
        {
          "indexed": true,
          "internalType": "address",
          "name": "owner",
          "type": "address"
        },
        {
          "indexed": true,
          "internalType": "address",
          "name": "spender",
          "type": "address"
        },
        {
          "indexed": false,
          "internalType": "uint256",
          "name": "value",
          "type": "uint256"
        }
      ],
      "name": "Approval",
      "type": "event"
    },
    {
      "anonymous": false,
      "inputs": [],
      "name": "EIP712DomainChanged",
      "type": "event"
    },
    {
      "anonymous": false,
      "inputs": [
        {
          "indexed": true,
          "internalType": "address",
          "name": "previousOwner",
          "type": "address"
        },
        {
          "indexed": true,
          "internalType": "address",
          "name": "newOwner",
          "type": "address"
        }
      ],
      "name": "OwnershipTransferred",
      "type": "event"
    },
    {
      "anonymous": false,
      "inputs": [
        {
          "indexed": true,
          "internalType": "address",
          "name": "from",
          "type": "address"
        },
        {
          "indexed": true,
          "internalType": "address",
          "name": "to",
          "type": "address"
        },
        {
          "indexed": false,
          "internalType": "uint256",
          "name": "value",
          "type": "uint256"
        }
      ],
      "name": "Transfer",
      "type": "event"
    },
    {
      "inputs": [],
      "name": "DOMAIN_SEPARATOR",
      "outputs": [
        {
          "internalType": "bytes32",
          "name": "",
          "type": "bytes32"
        }
      ],
      "stateMutability": "view",
      "type": "function"
    },
    {
      "inputs": [
        {
          "internalType": "address",
          "name": "owner",
          "type": "address"
        },
        {
          "internalType": "address",
          "name": "spender",
          "type": "address"
        }
      ],
      "name": "allowance",
      "outputs": [
        {
          "internalType": "uint256",
          "name": "",
          "type": "uint256"
        }
      ],
      "stateMutability": "view",
      "type": "function"
    },
    {
      "inputs": [
        {
          "internalType": "address",
          "name": "spender",
          "type": "address"
        },
        {
          "internalType": "uint256",
          "name": "value",
          "type": "uint256"
        }
      ],
      "name": "approve",
      "outputs": [
        {
          "internalType": "bool",
          "name": "",
          "type": "bool"
        }
      ],
      "stateMutability": "nonpayable",
      "type": "function"
    },
    {
      "inputs": [
        {
          "internalType": "address",
          "name": "account",
          "type": "address"
        }
      ],
      "name": "balanceOf",
      "outputs": [
        {
          "internalType": "uint256",
          "name": "",
          "type": "uint256"
        }
      ],
      "stateMutability": "view",
      "type": "function"
    },
    {
      "inputs": [],
      "name": "decimals",
      "outputs": [
        {
          "internalType": "uint8",
          "name": "",
          "type": "uint8"
        }
      ],
      "stateMutability": "view",
      "type": "function"
    },
    {
      "inputs": [],
      "name": "eip712Domain",
      "outputs": [
        {
          "internalType": "bytes1",
          "name": "fields",
          "type": "bytes1"
        },
        {
          "internalType": "string",
          "name": "name",
          "type": "string"
        },
        {
          "internalType": "string",
          "name": "version",
          "type": "string"
        },
        {
          "internalType": "uint256",
          "name": "chainId",
          "type": "uint256"
        },
        {
          "internalType": "address",
          "name": "verifyingContract",
          "type": "address"
        },
        {
          "internalType": "bytes32",
          "name": "salt",
          "type": "bytes32"
        },
        {
          "internalType": "uint256[]",
          "name": "extensions",
          "type": "uint256[]"
        }
      ],
      "stateMutability": "view",
      "type": "function"
    },
    {
      "inputs": [],
      "name": "name",
      "outputs": [
        {
          "internalType": "string",
          "name": "",
          "type": "string"
        }
      ],
      "stateMutability": "view",
      "type": "function"
    },
    {
      "inputs": [
        {
          "internalType": "address",
          "name": "owner",
          "type": "address"
        }
      ],
      "name": "nonces",
      "outputs": [
        {
          "internalType": "uint256",
          "name": "",
          "type": "uint256"
        }
      ],
      "stateMutability": "view",
      "type": "function"
    },
    {
      "inputs": [],
      "name": "owner",
      "outputs": [
        {
          "internalType": "address",
          "name": "",
          "type": "address"
        }
      ],
      "stateMutability": "view",
      "type": "function"
    },
    {
      "inputs": [
        {
          "internalType": "address",
          "name": "owner",
          "type": "address"
        },
        {
          "internalType": "address",
          "name": "spender",
          "type": "address"
        },
        {
          "internalType": "uint256",
          "name": "value",
          "type": "uint256"
        },
        {
          "internalType": "uint256",
          "name": "deadline",
          "type": "uint256"
        },
        {
          "internalType": "uint8",
          "name": "v",
          "type": "uint8"
        },
        {
          "internalType": "bytes32",
          "name": "r",
          "type": "bytes32"
        },
        {
          "internalType": "bytes32",
          "name": "s",
          "type": "bytes32"
        }
      ],
      "name": "permit",
      "outputs": [],
      "stateMutability": "nonpayable",
      "type": "function"
    },
    {
      "inputs": [],
      "name": "renounceOwnership",
      "outputs": [],
      "stateMutability": "nonpayable",
      "type": "function"
    },
    {
      "inputs": [],
      "name": "symbol",
      "outputs": [
        {
          "internalType": "string",
          "name": "",
          "type": "string"
        }
      ],
      "stateMutability": "view",
      "type": "function"
    },
    {
      "inputs": [],
      "name": "totalSupply",
      "outputs": [
        {
          "internalType": "uint256",
          "name": "",
          "type": "uint256"
        }
      ],
      "stateMutability": "view",
      "type": "function"
    },
    {
      "inputs": [
        {
          "internalType": "address",
          "name": "to",
          "type": "address"
        },
        {
          "internalType": "uint256",
          "name": "value",
          "type": "uint256"
        }
      ],
      "name": "transfer",
      "outputs": [
        {
          "internalType": "bool",
          "name": "",
          "type": "bool"
        }
      ],
      "stateMutability": "nonpayable",
      "type": "function"
    },
    {
      "inputs": [
        {
          "internalType": "address",
          "name": "from",
          "type": "address"
        },
        {
          "internalType": "address",
          "name": "to",
          "type": "address"
        },
        {
          "internalType": "uint256",
          "name": "value",
          "type": "uint256"
        }
      ],
      "name": "transferFrom",
      "outputs": [
        {
          "internalType": "bool",
          "name": "",
          "type": "bool"
        }
      ],
      "stateMutability": "nonpayable",
      "type": "function"
    },
    {
      "inputs": [
        {
          "internalType": "address",
          "name": "newOwner",
          "type": "address"
        }
      ],
      "name": "transferOwnership",
      "outputs": [],
      "stateMutability": "nonpayable",
      "type": "function"
    }
  ],
  "bytecode": "0x610160604052348015610010575f5ffd5b50604051612bc3380380612bc3833981810160405281019061003291906107c8565b3383806040518060400160405280600181526020017f31000000000000000000000000000000000000000000000000000000000000008152508686816003908161007c9190610a57565b50806004908161008c9190610a57565b5050506100a36005836101d260201b90919060201c565b61012081815250506100bf6006826101d260201b90919060201c565b6101408181525050818051906020012060e08181525050808051906020012061010081815250504660a081815250506100fc61021f60201b60201c565b608081815250503073ffffffffffffffffffffffffffffffffffffffff1660c08173ffffffffffffffffffffffffffffffffffffffff16815250505050505f73ffffffffffffffffffffffffffffffffffffffff168173ffffffffffffffffffffffffffffffffffffffff16036101aa575f6040517f1e4fbdf70000000000000000000000000000000000000000000000000000000081526004016101a19190610b65565b60405180910390fd5b6101b98161027960201b60201c565b506101ca338261033c60201b60201c565b505050610d9f565b5f6020835110156101f3576101ec836103c160201b60201c565b9050610219565b826102038361042660201b60201c565b5f0190816102119190610a57565b5060ff5f1b90505b92915050565b5f7f8b73c3c69bb8fe3d512ecc4cf759cc79239f7b179b0ffacaa9a75d522b39400f60e05161010051463060405160200161025e959493929190610ba5565b60405160208183030381529060405280519060200120905090565b5f60085f9054906101000a900473ffffffffffffffffffffffffffffffffffffffff1690508160085f6101000a81548173ffffffffffffffffffffffffffffffffffffffff021916908373ffffffffffffffffffffffffffffffffffffffff1602179055508173ffffffffffffffffffffffffffffffffffffffff168173ffffffffffffffffffffffffffffffffffffffff167f8be0079c531659141344cd1fd0a4f28419497f9722a3daafe3b4186f6b6457e060405160405180910390a35050565b5f73ffffffffffffffffffffffffffffffffffffffff168273ffffffffffffffffffffffffffffffffffffffff16036103ac575f6040517fec442f050000000000000000000000000000000000000000000000000000000081526004016103a39190610b65565b60405180910390fd5b6103bd5f838361042f60201b60201c565b5050565b5f5f829050601f8151111561040d57826040517f305a27a90000000000000000000000000000000000000000000000000000000081526004016104049190610c3e565b60405180910390fd5b80518161041990610c8b565b5f1c175f1b915050919050565b5f819050919050565b5f73ffffffffffffffffffffffffffffffffffffffff168373ffffffffffffffffffffffffffffffffffffffff160361047f578060025f8282546104739190610d1e565b9250508190555061054d565b5f5f5f8573ffffffffffffffffffffffffffffffffffffffff1673ffffffffffffffffffffffffffffffffffffffff1681526020019081526020015f2054905081811015610508578381836040517fe450d38c0000000000000000000000000000000000000000000000000000000081526004016104ff93929190610d51565b60405180910390fd5b8181035f5f8673ffffffffffffffffffffffffffffffffffffffff1673ffffffffffffffffffffffffffffffffffffffff1681526020019081526020015f2081905550505b5f73ffffffffffffffffffffffffffffffffffffffff168273ffffffffffffffffffffffffffffffffffffffff1603610594578060025f82825403925050819055506105de565b805f5f8473ffffffffffffffffffffffffffffffffffffffff1673ffffffffffffffffffffffffffffffffffffffff1681526020019081526020015f205f82825401925050819055505b8173ffffffffffffffffffffffffffffffffffffffff168373ffffffffffffffffffffffffffffffffffffffff167fddf252ad1be2c89b69c2b068fc378daa952ba7f163c4a11628f55a4df523b3ef8360405161063b9190610d86565b60405180910390a3505050565b5f604051905090565b5f5ffd5b5f5ffd5b5f5ffd5b5f5ffd5b5f601f19601f8301169050919050565b7f4e487b71000000000000000000000000000000000000000000000000000000005f52604160045260245ffd5b6106a782610661565b810181811067ffffffffffffffff821117156106c6576106c5610671565b5b80604052505050565b5f6106d8610648565b90506106e4828261069e565b919050565b5f67ffffffffffffffff82111561070357610702610671565b5b61070c82610661565b9050602081019050919050565b8281835e5f83830152505050565b5f610739610734846106e9565b6106cf565b9050828152602081018484840111156107555761075461065d565b5b610760848285610719565b509392505050565b5f82601f83011261077c5761077b610659565b5b815161078c848260208601610727565b91505092915050565b5f819050919050565b6107a781610795565b81146107b1575f5ffd5b50565b5f815190506107c28161079e565b92915050565b5f5f5f606084860312156107df576107de610651565b5b5f84015167ffffffffffffffff8111156107fc576107fb610655565b5b61080886828701610768565b935050602084015167ffffffffffffffff81111561082957610828610655565b5b61083586828701610768565b9250506040610846868287016107b4565b9150509250925092565b5f81519050919050565b7f4e487b71000000000000000000000000000000000000000000000000000000005f52602260045260245ffd5b5f600282049050600182168061089e57607f821691505b6020821081036108b1576108b061085a565b5b50919050565b5f819050815f5260205f209050919050565b5f6020601f8301049050919050565b5f82821b905092915050565b5f600883026109137fffffffffffffffffffffffffffffffffffffffffffffffffffffffffffffffff826108d8565b61091d86836108d8565b95508019841693508086168417925050509392505050565b5f819050919050565b5f61095861095361094e84610795565b610935565b610795565b9050919050565b5f819050919050565b6109718361093e565b61098561097d8261095f565b8484546108e4565b825550505050565b5f5f905090565b61099c61098d565b6109a7818484610968565b505050565b5b818110156109ca576109bf5f82610994565b6001810190506109ad565b5050565b601f821115610a0f576109e0816108b7565b6109e9846108c9565b810160208510156109f8578190505b610a0c610a04856108c9565b8301826109ac565b50505b505050565b5f82821c905092915050565b5f610a2f5f1984600802610a14565b1980831691505092915050565b5f610a478383610a20565b9150826002028217905092915050565b610a6082610850565b67ffffffffffffffff811115610a7957610a78610671565b5b610a838254610887565b610a8e8282856109ce565b5f60209050601f831160018114610abf575f8415610aad578287015190505b610ab78582610a3c565b865550610b1e565b601f198416610acd866108b7565b5f5b82811015610af457848901518255600182019150602085019450602081019050610acf565b86831015610b115784890151610b0d601f891682610a20565b8355505b6001600288020188555050505b505050505050565b5f73ffffffffffffffffffffffffffffffffffffffff82169050919050565b5f610b4f82610b26565b9050919050565b610b5f81610b45565b82525050565b5f602082019050610b785f830184610b56565b92915050565b5f819050919050565b610b9081610b7e565b82525050565b610b9f81610795565b82525050565b5f60a082019050610bb85f830188610b87565b610bc56020830187610b87565b610bd26040830186610b87565b610bdf6060830185610b96565b610bec6080830184610b56565b9695505050505050565b5f82825260208201905092915050565b5f610c1082610850565b610c1a8185610bf6565b9350610c2a818560208601610719565b610c3381610661565b840191505092915050565b5f6020820190508181035f830152610c568184610c06565b905092915050565b5f81519050919050565b5f819050602082019050919050565b5f610c828251610b7e565b80915050919050565b5f610c9582610c5e565b82610c9f84610c68565b9050610caa81610c77565b92506020821015610cea57610ce57fffffffffffffffffffffffffffffffffffffffffffffffffffffffffffffffff836020036008026108d8565b831692505b5050919050565b7f4e487b71000000000000000000000000000000000000000000000000000000005f52601160045260245ffd5b5f610d2882610795565b9150610d3383610795565b9250828201905080821115610d4b57610d4a610cf1565b5b92915050565b5f606082019050610d645f830186610b56565b610d716020830185610b96565b610d7e6040830184610b96565b949350505050565b5f602082019050610d995f830184610b96565b92915050565b60805160a05160c05160e051610100516101205161014051611dd3610df05f395f610c9401525f610c5901525f61118d01525f61116c01525f610a0d01525f610a6301525f610a8c0152611dd35ff3fe608060405234801561000f575f5ffd5b50600436106100fe575f3560e01c80637ecebe0011610095578063a9059cbb11610064578063a9059cbb146102a4578063d505accf146102d4578063dd62ed3e146102f0578063f2fde38b14610320576100fe565b80637ecebe001461021457806384b0196e146102445780638da5cb5b1461026857806395d89b4114610286576100fe565b8063313ce567116100d1578063313ce5671461019e5780633644e515146101bc57806370a08231146101da578063715018a61461020a576100fe565b806306fdde0314610102578063095ea7b31461012057806318160ddd1461015057806323b872dd1461016e575b5f5ffd5b61010a61033c565b6040516101179190611643565b60405180910390f35b61013a600480360381019061013591906116f4565b6103cc565b604051610147919061174c565b60405180910390f35b6101586103ee565b6040516101659190611774565b60405180910390f35b6101886004803603810190610183919061178d565b6103f7565b604051610195919061174c565b60405180910390f35b6101a6610425565b6040516101b391906117f8565b60405180910390f35b6101c461042d565b6040516101d19190611829565b60405180910390f35b6101f460048036038101906101ef9190611842565b61043b565b6040516102019190611774565b60405180910390f35b610212610480565b005b61022e60048036038101906102299190611842565b610493565b60405161023b9190611774565b60405180910390f35b61024c6104a4565b60405161025f979695949392919061196d565b60405180910390f35b610270610549565b60405161027d91906119ef565b60405180910390f35b61028e610571565b60405161029b9190611643565b60405180910390f35b6102be60048036038101906102b991906116f4565b610601565b6040516102cb919061174c565b60405180910390f35b6102ee60048036038101906102e99190611a5c565b610623565b005b61030a60048036038101906103059190611af9565b610768565b6040516103179190611774565b60405180910390f35b61033a60048036038101906103359190611842565b6107ea565b005b60606003805461034b90611b64565b80601f016020809104026020016040519081016040528092919081815260200182805461037790611b64565b80156103c25780601f10610399576101008083540402835291602001916103c2565b820191905f5260205f20905b8154815290600101906020018083116103a557829003601f168201915b5050505050905090565b5f5f6103d661086e565b90506103e3818585610875565b600191505092915050565b5f600254905090565b5f5f61040161086e565b905061040e858285610887565b61041985858561091a565b60019150509392505050565b5f6012905090565b5f610436610a0a565b905090565b5f5f5f8373ffffffffffffffffffffffffffffffffffffffff1673ffffffffffffffffffffffffffffffffffffffff1681526020019081526020015f20549050919050565b610488610ac0565b6104915f610b47565b565b5f61049d82610c0a565b9050919050565b5f6060805f5f5f60606104b5610c50565b6104bd610c8b565b46305f5f1b5f67ffffffffffffffff8111156104dc576104db611b94565b5b60405190808252806020026020018201604052801561050a5781602001602082028036833780820191505090505b507f0f00000000000000000000000000000000000000000000000000000000000000959493929190965096509650965096509650965090919293949596565b5f60085f9054906101000a900473ffffffffffffffffffffffffffffffffffffffff16905090565b60606004805461058090611b64565b80601f01602080910402602001604051908101604052809291908181526020018280546105ac90611b64565b80156105f75780601f106105ce576101008083540402835291602001916105f7565b820191905f5260205f20905b8154815290600101906020018083116105da57829003601f168201915b5050505050905090565b5f5f61060b61086e565b905061061881858561091a565b600191505092915050565b8342111561066857836040517f6279130200000000000000000000000000000000000000000000000000000000815260040161065f9190611774565b60405180910390fd5b5f7f6e71edae12b1b97f4d1f60370fef10105fa2faae0126114a169c64845d6126c98888886106968c610cc6565b896040516020016106ac96959493929190611bc1565b6040516020818303038152906040528051906020012090505f6106ce82610d19565b90505f6106dd82878787610d32565b90508973ffffffffffffffffffffffffffffffffffffffff168173ffffffffffffffffffffffffffffffffffffffff161461075157808a6040517f4b800e46000000000000000000000000000000000000000000000000000000008152600401610748929190611c20565b60405180910390fd5b61075c8a8a8a610875565b50505050505050505050565b5f60015f8473ffffffffffffffffffffffffffffffffffffffff1673ffffffffffffffffffffffffffffffffffffffff1681526020019081526020015f205f8373ffffffffffffffffffffffffffffffffffffffff1673ffffffffffffffffffffffffffffffffffffffff1681526020019081526020015f2054905092915050565b6107f2610ac0565b5f73ffffffffffffffffffffffffffffffffffffffff168173ffffffffffffffffffffffffffffffffffffffff1603610862575f6040517f1e4fbdf700000000000000000000000000000000000000000000000000000000815260040161085991906119ef565b60405180910390fd5b61086b81610b47565b50565b5f33905090565b6108828383836001610d60565b505050565b5f6108928484610768565b90507fffffffffffffffffffffffffffffffffffffffffffffffffffffffffffffffff8110156109145781811015610905578281836040517ffb8f41b20000000000000000000000000000000000000000000000000000000081526004016108fc93929190611c47565b60405180910390fd5b61091384848484035f610d60565b5b50505050565b5f73ffffffffffffffffffffffffffffffffffffffff168373ffffffffffffffffffffffffffffffffffffffff160361098a575f6040517f96c6fd1e00000000000000000000000000000000000000000000000000000000815260040161098191906119ef565b60405180910390fd5b5f73ffffffffffffffffffffffffffffffffffffffff168273ffffffffffffffffffffffffffffffffffffffff16036109fa575f6040517fec442f050000000000000000000000000000000000000000000000000000000081526004016109f191906119ef565b60405180910390fd5b610a05838383610f2f565b505050565b5f7f000000000000000000000000000000000000000000000000000000000000000073ffffffffffffffffffffffffffffffffffffffff163073ffffffffffffffffffffffffffffffffffffffff16148015610a8557507f000000000000000000000000000000000000000000000000000000000000000046145b15610ab2577f00000000000000000000000000000000000000000000000000000000000000009050610abd565b610aba611148565b90505b90565b610ac861086e565b73ffffffffffffffffffffffffffffffffffffffff16610ae6610549565b73ffffffffffffffffffffffffffffffffffffffff1614610b4557610b0961086e565b6040517f118cdaa7000000000000000000000000000000000000000000000000000000008152600401610b3c91906119ef565b60405180910390fd5b565b5f60085f9054906101000a900473ffffffffffffffffffffffffffffffffffffffff1690508160085f6101000a81548173ffffffffffffffffffffffffffffffffffffffff021916908373ffffffffffffffffffffffffffffffffffffffff1602179055508173ffffffffffffffffffffffffffffffffffffffff168173ffffffffffffffffffffffffffffffffffffffff167f8be0079c531659141344cd1fd0a4f28419497f9722a3daafe3b4186f6b6457e060405160405180910390a35050565b5f60075f8373ffffffffffffffffffffffffffffffffffffffff1673ffffffffffffffffffffffffffffffffffffffff1681526020019081526020015f20549050919050565b6060610c8660057f00000000000000000000000000000000000000000000000000000000000000006111dd90919063ffffffff16565b905090565b6060610cc160067f00000000000000000000000000000000000000000000000000000000000000006111dd90919063ffffffff16565b905090565b5f60075f8373ffffffffffffffffffffffffffffffffffffffff1673ffffffffffffffffffffffffffffffffffffffff1681526020019081526020015f205f815480929190600101919050559050919050565b5f610d2b610d25610a0a565b8361128a565b9050919050565b5f5f5f5f610d42888888886112ca565b925092509250610d5282826113b1565b829350505050949350505050565b5f73ffffffffffffffffffffffffffffffffffffffff168473ffffffffffffffffffffffffffffffffffffffff1603610dd0575f6040517fe602df05000000000000000000000000000000000000000000000000000000008152600401610dc791906119ef565b60405180910390fd5b5f73ffffffffffffffffffffffffffffffffffffffff168373ffffffffffffffffffffffffffffffffffffffff1603610e40575f6040517f94280d62000000000000000000000000000000000000000000000000000000008152600401610e3791906119ef565b60405180910390fd5b8160015f8673ffffffffffffffffffffffffffffffffffffffff1673ffffffffffffffffffffffffffffffffffffffff1681526020019081526020015f205f8573ffffffffffffffffffffffffffffffffffffffff1673ffffffffffffffffffffffffffffffffffffffff1681526020019081526020015f20819055508015610f29578273ffffffffffffffffffffffffffffffffffffffff168473ffffffffffffffffffffffffffffffffffffffff167f8c5be1e5ebec7d5bd14f71427d1e84f3dd0314c0f7b2291e5b200ac8c7c3b92584604051610f209190611774565b60405180910390a35b50505050565b5f73ffffffffffffffffffffffffffffffffffffffff168373ffffffffffffffffffffffffffffffffffffffff1603610f7f578060025f828254610f739190611ca9565b9250508190555061104d565b5f5f5f8573ffffffffffffffffffffffffffffffffffffffff1673ffffffffffffffffffffffffffffffffffffffff1681526020019081526020015f2054905081811015611008578381836040517fe450d38c000000000000000000000000000000000000000000000000000000008152600401610fff93929190611c47565b60405180910390fd5b8181035f5f8673ffffffffffffffffffffffffffffffffffffffff1673ffffffffffffffffffffffffffffffffffffffff1681526020019081526020015f2081905550505b5f73ffffffffffffffffffffffffffffffffffffffff168273ffffffffffffffffffffffffffffffffffffffff1603611094578060025f82825403925050819055506110de565b805f5f8473ffffffffffffffffffffffffffffffffffffffff1673ffffffffffffffffffffffffffffffffffffffff1681526020019081526020015f205f82825401925050819055505b8173ffffffffffffffffffffffffffffffffffffffff168373ffffffffffffffffffffffffffffffffffffffff167fddf252ad1be2c89b69c2b068fc378daa952ba7f163c4a11628f55a4df523b3ef8360405161113b9190611774565b60405180910390a3505050565b5f7f8b73c3c69bb8fe3d512ecc4cf759cc79239f7b179b0ffacaa9a75d522b39400f7f00000000000000000000000000000000000000000000000000000000000000007f000000000000000000000000000000000000000000000000000000000000000046306040516020016111c2959493929190611cdc565b60405160208183030381529060405280519060200120905090565b606060ff5f1b83146111f9576111f283611513565b9050611284565b81805461120590611b64565b80601f016020809104026020016040519081016040528092919081815260200182805461123190611b64565b801561127c5780601f106112535761010080835404028352916020019161127c565b820191905f5260205f20905b81548152906001019060200180831161125f57829003601f168201915b505050505090505b92915050565b5f6040517f190100000000000000000000000000000000000000000000000000000000000081528360028201528260228201526042812091505092915050565b5f5f5f7f7fffffffffffffffffffffffffffffff5d576e7357a4501ddfe92f46681b20a0845f1c1115611306575f6003859250925092506113a7565b5f6001888888886040515f81526020016040526040516113299493929190611d2d565b6020604051602081039080840390855afa158015611349573d5f5f3e3d5ffd5b5050506020604051035190505f73ffffffffffffffffffffffffffffffffffffffff168173ffffffffffffffffffffffffffffffffffffffff160361139a575f60015f5f1b935093509350506113a7565b805f5f5f1b935093509350505b9450945094915050565b5f60038111156113c4576113c3611d70565b5b8260038111156113d7576113d6611d70565b5b031561150f57600160038111156113f1576113f0611d70565b5b82600381111561140457611403611d70565b5b0361143b576040517ff645eedf00000000000000000000000000000000000000000000000000000000815260040160405180910390fd5b6002600381111561144f5761144e611d70565b5b82600381111561146257611461611d70565b5b036114a657805f1c6040517ffce698f700000000000000000000000000000000000000000000000000000000815260040161149d9190611774565b60405180910390fd5b6003808111156114b9576114b8611d70565b5b8260038111156114cc576114cb611d70565b5b0361150e57806040517fd78bce0c0000000000000000000000000000000000000000000000000000000081526004016115059190611829565b60405180910390fd5b5b5050565b60605f61151f83611585565b90505f602067ffffffffffffffff81111561153d5761153c611b94565b5b6040519080825280601f01601f19166020018201604052801561156f5781602001600182028036833780820191505090505b5090508181528360208201528092505050919050565b5f5f60ff835f1c169050601f8111156115ca576040517fb3512b0c00000000000000000000000000000000000000000000000000000000815260040160405180910390fd5b80915050919050565b5f81519050919050565b5f82825260208201905092915050565b8281835e5f83830152505050565b5f601f19601f8301169050919050565b5f611615826115d3565b61161f81856115dd565b935061162f8185602086016115ed565b611638816115fb565b840191505092915050565b5f6020820190508181035f83015261165b818461160b565b905092915050565b5f5ffd5b5f73ffffffffffffffffffffffffffffffffffffffff82169050919050565b5f61169082611667565b9050919050565b6116a081611686565b81146116aa575f5ffd5b50565b5f813590506116bb81611697565b92915050565b5f819050919050565b6116d3816116c1565b81146116dd575f5ffd5b50565b5f813590506116ee816116ca565b92915050565b5f5f6040838503121561170a57611709611663565b5b5f611717858286016116ad565b9250506020611728858286016116e0565b9150509250929050565b5f8115159050919050565b61174681611732565b82525050565b5f60208201905061175f5f83018461173d565b92915050565b61176e816116c1565b82525050565b5f6020820190506117875f830184611765565b92915050565b5f5f5f606084860312156117a4576117a3611663565b5b5f6117b1868287016116ad565b93505060206117c2868287016116ad565b92505060406117d3868287016116e0565b9150509250925092565b5f60ff82169050919050565b6117f2816117dd565b82525050565b5f60208201905061180b5f8301846117e9565b92915050565b5f819050919050565b61182381611811565b82525050565b5f60208201905061183c5f83018461181a565b92915050565b5f6020828403121561185757611856611663565b5b5f611864848285016116ad565b91505092915050565b5f7fff0000000000000000000000000000000000000000000000000000000000000082169050919050565b6118a18161186d565b82525050565b6118b081611686565b82525050565b5f81519050919050565b5f82825260208201905092915050565b5f819050602082019050919050565b6118e8816116c1565b82525050565b5f6118f983836118df565b60208301905092915050565b5f602082019050919050565b5f61191b826118b6565b61192581856118c0565b9350611930836118d0565b805f5b8381101561196057815161194788826118ee565b975061195283611905565b925050600181019050611933565b5085935050505092915050565b5f60e0820190506119805f83018a611898565b8181036020830152611992818961160b565b905081810360408301526119a6818861160b565b90506119b56060830187611765565b6119c260808301866118a7565b6119cf60a083018561181a565b81810360c08301526119e18184611911565b905098975050505050505050565b5f602082019050611a025f8301846118a7565b92915050565b611a11816117dd565b8114611a1b575f5ffd5b50565b5f81359050611a2c81611a08565b92915050565b611a3b81611811565b8114611a45575f5ffd5b50565b5f81359050611a5681611a32565b92915050565b5f5f5f5f5f5f5f60e0888a031215611a7757611a76611663565b5b5f611a848a828b016116ad565b9750506020611a958a828b016116ad565b9650506040611aa68a828b016116e0565b9550506060611ab78a828b016116e0565b9450506080611ac88a828b01611a1e565b93505060a0611ad98a828b01611a48565b92505060c0611aea8a828b01611a48565b91505092959891949750929550565b5f5f60408385031215611b0f57611b0e611663565b5b5f611b1c858286016116ad565b9250506020611b2d858286016116ad565b9150509250929050565b7f4e487b71000000000000000000000000000000000000000000000000000000005f52602260045260245ffd5b5f6002820490506001821680611b7b57607f821691505b602082108103611b8e57611b8d611b37565b5b50919050565b7f4e487b71000000000000000000000000000000000000000000000000000000005f52604160045260245ffd5b5f60c082019050611bd45f83018961181a565b611be160208301886118a7565b611bee60408301876118a7565b611bfb6060830186611765565b611c086080830185611765565b611c1560a0830184611765565b979650505050505050565b5f604082019050611c335f8301856118a7565b611c4060208301846118a7565b9392505050565b5f606082019050611c5a5f8301866118a7565b611c676020830185611765565b611c746040830184611765565b949350505050565b7f4e487b71000000000000000000000000000000000000000000000000000000005f52601160045260245ffd5b5f611cb3826116c1565b9150611cbe836116c1565b9250828201905080821115611cd657611cd5611c7c565b5b92915050565b5f60a082019050611cef5f83018861181a565b611cfc602083018761181a565b611d09604083018661181a565b611d166060830185611765565b611d2360808301846118a7565b9695505050505050565b5f608082019050611d405f83018761181a565b611d4d60208301866117e9565b611d5a604083018561181a565b611d67606083018461181a565b95945050505050565b7f4e487b71000000000000000000000000000000000000000000000000000000005f52602160045260245ffdfea26469706673582212209955fdfd852b77d9de5ea56fb0162e3263c219b9ff84dce2ef87f0aeeb38a2e264736f6c634300081c0033",
  "linkReferences": {},
  "deployedLinkReferences": {},
  "immutableReferences": {
    "3380": [
      {
        "length": 32,
        "start": 2700
      }
    ],
    "3382": [
      {
        "length": 32,
        "start": 2659
      }
    ],
    "3384": [
      {
        "length": 32,
        "start": 2573
      }
    ],
    "3386": [
      {
        "length": 32,
        "start": 4460
      }
    ],
    "3388": [
      {
        "length": 32,
        "start": 4493
      }
    ],
    "3391": [
      {
        "length": 32,
        "start": 3161
      }
    ],
    "3394": [
      {
        "length": 32,
        "start": 3220
      }
    ]
  },
  "inputSourceName": "project/contracts/GenericToken.sol",
  "buildInfoId": "solc-0_8_28-37751143d9f09c2d07724f017cc05634d5291acf"
}