{
  "_format": "hh3-artifact-1",
  "contractName": "TokenRegistry",
  "sourceName": "contracts/TokenRegistry.sol",
  "abi": [
    {
      "inputs": [],
      "stateMutability": "nonpayable",
      "type": "constructor"
    },
    {
      "inputs": [
        {
          "internalType": "address",
          "name": "owner",
          "type": "address"
        }
      ],
      "name": "OwnableInvalidOwner",
      "type": "error"
    },
    {
      "inputs": [
        {
          "internalType": "address",
          "name": "account",
          "type": "address"
        }
      ],
      "name": "OwnableUnauthorizedAccount",
      "type": "error"
    },
    {
      "anonymous": false,
      "inputs": [
        {
          "indexed": true,
          "internalType": "address",
          "name": "previousOwner",
          "type": "address"
        },
        {
          "indexed": true,
          "internalType": "address",
          "name": "newOwner",
          "type": "address"
        }
      ],
      "name": "OwnershipTransferred",
      "type": "event"
    },
    {
      "anonymous": false,
      "inputs": [
        {
          "indexed": true,
          "internalType": "address",
          "name": "token",
          "type": "address"
        },
        {
          "indexed": false,
          "internalType": "string",
          "name": "name",
          "type": "string"
        },
        {
          "indexed": false,
          "internalType": "string",
          "name": "symbol",
          "type": "string"
        }
      ],
      "name": "TokenAdded",
      "type": "event"
    },
    {
      "anonymous": false,
      "inputs": [
        {
          "indexed": true,
          "internalType": "address",
          "name": "token",
          "type": "address"
        },
        {
          "indexed": false,
          "internalType": "string",
          "name": "name",
          "type": "string"
        },
        {
          "indexed": false,
          "internalType": "string",
          "name": "symbol",
          "type": "string"
        }
      ],
      "name": "TokenRemoved",
      "type": "event"
    },
    {
      "inputs": [
        {
          "internalType": "address",
          "name": "token",
          "type": "address"
        }
      ],
      "name": "addToken",
      "outputs": [],
      "stateMutability": "nonpayable",
      "type": "function"
    },
    {
      "inputs": [],
      "name": "getAllTokens",
      "outputs": [
        {
          "internalType": "address[]",
          "name": "",
          "type": "address[]"
        }
      ],
      "stateMutability": "view",
      "type": "function"
    },
    {
      "inputs": [
        {
          "internalType": "string",
          "name": "symbol",
          "type": "string"
        }
      ],
      "name": "getTokenAddress",
      "outputs": [
        {
          "internalType": "address",
          "name": "",
          "type": "address"
        }
      ],
      "stateMutability": "view",
      "type": "function"
    },
    {
      "inputs": [
        {
          "internalType": "address",
          "name": "token",
          "type": "address"
        }
      ],
      "name": "isSupported",
      "outputs": [
        {
          "internalType": "bool",
          "name": "",
          "type": "bool"
        }
      ],
      "stateMutability": "view",
      "type": "function"
    },
    {
      "inputs": [],
      "name": "owner",
      "outputs": [
        {
          "internalType": "address",
          "name": "",
          "type": "address"
        }
      ],
      "stateMutability": "view",
      "type": "function"
    },
    {
      "inputs": [
        {
          "internalType": "address",
          "name": "token",
          "type": "address"
        }
      ],
      "name": "removeToken",
      "outputs": [],
      "stateMutability": "nonpayable",
      "type": "function"
    },
    {
      "inputs": [],
      "name": "renounceOwnership",
      "outputs": [],
      "stateMutability": "nonpayable",
      "type": "function"
    },
    {
      "inputs": [
        {
          "internalType": "address",
          "name": "newOwner",
          "type": "address"
        }
      ],
      "name": "transferOwnership",
      "outputs": [],
      "stateMutability": "nonpayable",
      "type": "function"
    }
  ],
  "bytecode": "0x608060405234801561000f575f5ffd5b50335f73ffffffffffffffffffffffffffffffffffffffff168173ffffffffffffffffffffffffffffffffffffffff1603610081575f6040517f1e4fbdf70000000000000000000000000000000000000000000000000000000081526004016100789190610196565b60405180910390fd5b6100908161009660201b60201c565b506101af565b5f5f5f9054906101000a900473ffffffffffffffffffffffffffffffffffffffff169050815f5f6101000a81548173ffffffffffffffffffffffffffffffffffffffff021916908373ffffffffffffffffffffffffffffffffffffffff1602179055508173ffffffffffffffffffffffffffffffffffffffff168173ffffffffffffffffffffffffffffffffffffffff167f8be0079c531659141344cd1fd0a4f28419497f9722a3daafe3b4186f6b6457e060405160405180910390a35050565b5f73ffffffffffffffffffffffffffffffffffffffff82169050919050565b5f61018082610157565b9050919050565b61019081610176565b82525050565b5f6020820190506101a95f830184610187565b92915050565b6119f6806101bc5f395ff3fe608060405234801561000f575f5ffd5b5060043610610086575f3560e01c80638da5cb5b116100595780638da5cb5b146100fe578063c40912361461011c578063d48bfca71461014c578063f2fde38b1461016857610086565b80632a5c792a1461008a5780634f129c53146100a85780635fa7b584146100d8578063715018a6146100f4575b5f5ffd5b610092610184565b60405161009f9190610f4d565b60405180910390f35b6100c260048036038101906100bd9190610fa8565b61020f565b6040516100cf9190610fed565b60405180910390f35b6100f260048036038101906100ed9190610fa8565b610265565b005b6100fc6106d6565b005b6101066106e9565b6040516101139190611015565b60405180910390f35b6101366004803603810190610131919061108f565b610710565b6040516101439190611015565b60405180910390f35b61016660048036038101906101619190610fa8565b610759565b005b610182600480360381019061017d9190610fa8565b610c3b565b005b6060600380548060200260200160405190810160405280929190818152602001828054801561020557602002820191905f5260205f20905b815f9054906101000a900473ffffffffffffffffffffffffffffffffffffffff1673ffffffffffffffffffffffffffffffffffffffff16815260200190600101908083116101bc575b5050505050905090565b5f60015f8373ffffffffffffffffffffffffffffffffffffffff1673ffffffffffffffffffffffffffffffffffffffff1681526020019081526020015f2060020160019054906101000a900460ff169050919050565b61026d610cbf565b5f60015f8373ffffffffffffffffffffffffffffffffffffffff1673ffffffffffffffffffffffffffffffffffffffff1681526020019081526020015f205f0180546102b890611107565b9050036102fa576040517f08c379a00000000000000000000000000000000000000000000000000000000081526004016102f190611191565b60405180910390fd5b5f60015f8373ffffffffffffffffffffffffffffffffffffffff1673ffffffffffffffffffffffffffffffffffffffff1681526020019081526020015f20600101805461034690611107565b80601f016020809104026020016040519081016040528092919081815260200182805461037290611107565b80156103bd5780601f10610394576101008083540402835291602001916103bd565b820191905f5260205f20905b8154815290600101906020018083116103a057829003601f168201915b505050505090506002816040516103d49190611201565b90815260200160405180910390205f6101000a81549073ffffffffffffffffffffffffffffffffffffffff021916905560015f8373ffffffffffffffffffffffffffffffffffffffff1673ffffffffffffffffffffffffffffffffffffffff1681526020019081526020015f205f5f82015f6104509190610e0e565b600182015f61045f9190610e0e565b600282015f6101000a81549060ff02191690556002820160016101000a81549060ff021916905550505f5f90505b600380549050811015610604578273ffffffffffffffffffffffffffffffffffffffff16600382815481106104c5576104c4611217565b5b905f5260205f20015f9054906101000a900473ffffffffffffffffffffffffffffffffffffffff1673ffffffffffffffffffffffffffffffffffffffff16036105f7576003600160038054905061051c919061127a565b8154811061052d5761052c611217565b5b905f5260205f20015f9054906101000a900473ffffffffffffffffffffffffffffffffffffffff166003828154811061056957610568611217565b5b905f5260205f20015f6101000a81548173ffffffffffffffffffffffffffffffffffffffff021916908373ffffffffffffffffffffffffffffffffffffffff16021790555060038054806105c0576105bf6112ad565b5b600190038181905f5260205f20015f6101000a81549073ffffffffffffffffffffffffffffffffffffffff02191690559055610604565b808060010191505061048d565b508173ffffffffffffffffffffffffffffffffffffffff167fba11981cb2ad3a6fea03eeb7ee1448ff61fc1fba3b4ac818db776e1748ff8ecc60015f8573ffffffffffffffffffffffffffffffffffffffff1673ffffffffffffffffffffffffffffffffffffffff1681526020019081526020015f205f0160015f8673ffffffffffffffffffffffffffffffffffffffff1673ffffffffffffffffffffffffffffffffffffffff1681526020019081526020015f206001016040516106ca92919061136d565b60405180910390a25050565b6106de610cbf565b6106e75f610d46565b565b5f5f5f9054906101000a900473ffffffffffffffffffffffffffffffffffffffff16905090565b5f600283836040516107239291906113d4565b90815260200160405180910390205f9054906101000a900473ffffffffffffffffffffffffffffffffffffffff16905092915050565b610761610cbf565b5f73ffffffffffffffffffffffffffffffffffffffff168173ffffffffffffffffffffffffffffffffffffffff16036107cf576040517f08c379a00000000000000000000000000000000000000000000000000000000081526004016107c690611436565b60405180910390fd5b5f60015f8373ffffffffffffffffffffffffffffffffffffffff1673ffffffffffffffffffffffffffffffffffffffff1681526020019081526020015f205f01805461081a90611107565b90501461085c576040517f08c379a00000000000000000000000000000000000000000000000000000000081526004016108539061149e565b60405180910390fd5b5f8173ffffffffffffffffffffffffffffffffffffffff166306fdde036040518163ffffffff1660e01b81526004015f60405180830381865afa1580156108a5573d5f5f3e3d5ffd5b505050506040513d5f823e3d601f19601f820116820180604052508101906108cd91906115e6565b90505f8273ffffffffffffffffffffffffffffffffffffffff166395d89b416040518163ffffffff1660e01b81526004015f60405180830381865afa158015610918573d5f5f3e3d5ffd5b505050506040513d5f823e3d601f19601f8201168201806040525081019061094091906115e6565b90505f73ffffffffffffffffffffffffffffffffffffffff166002826040516109699190611201565b90815260200160405180910390205f9054906101000a900473ffffffffffffffffffffffffffffffffffffffff1673ffffffffffffffffffffffffffffffffffffffff16146109ed576040517f08c379a00000000000000000000000000000000000000000000000000000000081526004016109e490611677565b60405180910390fd5b60405180608001604052808381526020018281526020018473ffffffffffffffffffffffffffffffffffffffff1663313ce5676040518163ffffffff1660e01b8152600401602060405180830381865afa158015610a4d573d5f5f3e3d5ffd5b505050506040513d601f19601f82011682018060405250810190610a7191906116cb565b60ff1681526020016001151581525060015f8573ffffffffffffffffffffffffffffffffffffffff1673ffffffffffffffffffffffffffffffffffffffff1681526020019081526020015f205f820151815f019081610ad09190611884565b506020820151816001019081610ae69190611884565b506040820151816002015f6101000a81548160ff021916908360ff16021790555060608201518160020160016101000a81548160ff02191690831515021790555090505082600282604051610b3b9190611201565b90815260200160405180910390205f6101000a81548173ffffffffffffffffffffffffffffffffffffffff021916908373ffffffffffffffffffffffffffffffffffffffff160217905550600383908060018154018082558091505060019003905f5260205f20015f9091909190916101000a81548173ffffffffffffffffffffffffffffffffffffffff021916908373ffffffffffffffffffffffffffffffffffffffff1602179055508273ffffffffffffffffffffffffffffffffffffffff167f2fb34ce114a136590b874d8cf80e7652adda576578bacfa4f8023f720f5693948383604051610c2e92919061198b565b60405180910390a2505050565b610c43610cbf565b5f73ffffffffffffffffffffffffffffffffffffffff168173ffffffffffffffffffffffffffffffffffffffff1603610cb3575f6040517f1e4fbdf7000000000000000000000000000000000000000000000000000000008152600401610caa9190611015565b60405180910390fd5b610cbc81610d46565b50565b610cc7610e07565b73ffffffffffffffffffffffffffffffffffffffff16610ce56106e9565b73ffffffffffffffffffffffffffffffffffffffff1614610d4457610d08610e07565b6040517f118cdaa7000000000000000000000000000000000000000000000000000000008152600401610d3b9190611015565b60405180910390fd5b565b5f5f5f9054906101000a900473ffffffffffffffffffffffffffffffffffffffff169050815f5f6101000a81548173ffffffffffffffffffffffffffffffffffffffff021916908373ffffffffffffffffffffffffffffffffffffffff1602179055508173ffffffffffffffffffffffffffffffffffffffff168173ffffffffffffffffffffffffffffffffffffffff167f8be0079c531659141344cd1fd0a4f28419497f9722a3daafe3b4186f6b6457e060405160405180910390a35050565b5f33905090565b508054610e1a90611107565b5f825580601f10610e2b5750610e48565b601f0160209004905f5260205f2090810190610e479190610e4b565b5b50565b5b80821115610e62575f815f905550600101610e4c565b5090565b5f81519050919050565b5f82825260208201905092915050565b5f819050602082019050919050565b5f73ffffffffffffffffffffffffffffffffffffffff82169050919050565b5f610eb882610e8f565b9050919050565b610ec881610eae565b82525050565b5f610ed98383610ebf565b60208301905092915050565b5f602082019050919050565b5f610efb82610e66565b610f058185610e70565b9350610f1083610e80565b805f5b83811015610f40578151610f278882610ece565b9750610f3283610ee5565b925050600181019050610f13565b5085935050505092915050565b5f6020820190508181035f830152610f658184610ef1565b905092915050565b5f604051905090565b5f5ffd5b5f5ffd5b610f8781610eae565b8114610f91575f5ffd5b50565b5f81359050610fa281610f7e565b92915050565b5f60208284031215610fbd57610fbc610f76565b5b5f610fca84828501610f94565b91505092915050565b5f8115159050919050565b610fe781610fd3565b82525050565b5f6020820190506110005f830184610fde565b92915050565b61100f81610eae565b82525050565b5f6020820190506110285f830184611006565b92915050565b5f5ffd5b5f5ffd5b5f5ffd5b5f5f83601f84011261104f5761104e61102e565b5b8235905067ffffffffffffffff81111561106c5761106b611032565b5b60208301915083600182028301111561108857611087611036565b5b9250929050565b5f5f602083850312156110a5576110a4610f76565b5b5f83013567ffffffffffffffff8111156110c2576110c1610f7a565b5b6110ce8582860161103a565b92509250509250929050565b7f4e487b71000000000000000000000000000000000000000000000000000000005f52602260045260245ffd5b5f600282049050600182168061111e57607f821691505b602082108103611131576111306110da565b5b50919050565b5f82825260208201905092915050565b7f546f6b656e206e6f7420737570706f72746564000000000000000000000000005f82015250565b5f61117b601383611137565b915061118682611147565b602082019050919050565b5f6020820190508181035f8301526111a88161116f565b9050919050565b5f81519050919050565b5f81905092915050565b8281835e5f83830152505050565b5f6111db826111af565b6111e581856111b9565b93506111f58185602086016111c3565b80840191505092915050565b5f61120c82846111d1565b915081905092915050565b7f4e487b71000000000000000000000000000000000000000000000000000000005f52603260045260245ffd5b5f819050919050565b7f4e487b71000000000000000000000000000000000000000000000000000000005f52601160045260245ffd5b5f61128482611244565b915061128f83611244565b92508282039050818111156112a7576112a661124d565b5b92915050565b7f4e487b71000000000000000000000000000000000000000000000000000000005f52603160045260245ffd5b5f819050815f5260205f209050919050565b5f81546112f881611107565b6113028186611137565b9450600182165f811461131c576001811461133257611364565b60ff198316865281151560200286019350611364565b61133b856112da565b5f5b8381101561135c5781548189015260018201915060208101905061133d565b808801955050505b50505092915050565b5f6040820190508181035f83015261138581856112ec565b9050818103602083015261139981846112ec565b90509392505050565b828183375f83830152505050565b5f6113bb83856111b9565b93506113c88385846113a2565b82840190509392505050565b5f6113e08284866113b0565b91508190509392505050565b7f496e76616c696420746f6b656e206164647265737300000000000000000000005f82015250565b5f611420601583611137565b915061142b826113ec565b602082019050919050565b5f6020820190508181035f83015261144d81611414565b9050919050565b7f546f6b656e20616c7265616479206164646564000000000000000000000000005f82015250565b5f611488601383611137565b915061149382611454565b602082019050919050565b5f6020820190508181035f8301526114b58161147c565b9050919050565b5f5ffd5b5f601f19601f8301169050919050565b7f4e487b71000000000000000000000000000000000000000000000000000000005f52604160045260245ffd5b611506826114c0565b810181811067ffffffffffffffff82111715611525576115246114d0565b5b80604052505050565b5f611537610f6d565b905061154382826114fd565b919050565b5f67ffffffffffffffff821115611562576115616114d0565b5b61156b826114c0565b9050602081019050919050565b5f61158a61158584611548565b61152e565b9050828152602081018484840111156115a6576115a56114bc565b5b6115b18482856111c3565b509392505050565b5f82601f8301126115cd576115cc61102e565b5b81516115dd848260208601611578565b91505092915050565b5f602082840312156115fb576115fa610f76565b5b5f82015167ffffffffffffffff81111561161857611617610f7a565b5b611624848285016115b9565b91505092915050565b7f53796d626f6c20616c72656164792075736564000000000000000000000000005f82015250565b5f611661601383611137565b915061166c8261162d565b602082019050919050565b5f6020820190508181035f83015261168e81611655565b9050919050565b5f60ff82169050919050565b6116aa81611695565b81146116b4575f5ffd5b50565b5f815190506116c5816116a1565b92915050565b5f602082840312156116e0576116df610f76565b5b5f6116ed848285016116b7565b91505092915050565b5f6020601f8301049050919050565b5f82821b905092915050565b5f600883026117407fffffffffffffffffffffffffffffffffffffffffffffffffffffffffffffffff82611705565b61174a8683611705565b95508019841693508086168417925050509392505050565b5f819050919050565b5f61178561178061177b84611244565b611762565b611244565b9050919050565b5f819050919050565b61179e8361176b565b6117b26117aa8261178c565b848454611711565b825550505050565b5f5f905090565b6117c96117ba565b6117d4818484611795565b505050565b5b818110156117f7576117ec5f826117c1565b6001810190506117da565b5050565b601f82111561183c5761180d816112da565b611816846116f6565b81016020851015611825578190505b611839611831856116f6565b8301826117d9565b50505b505050565b5f82821c905092915050565b5f61185c5f1984600802611841565b1980831691505092915050565b5f611874838361184d565b9150826002028217905092915050565b61188d826111af565b67ffffffffffffffff8111156118a6576118a56114d0565b5b6118b08254611107565b6118bb8282856117fb565b5f60209050601f8311600181146118ec575f84156118da578287015190505b6118e48582611869565b86555061194b565b601f1984166118fa866112da565b5f5b82811015611921578489015182556001820191506020850194506020810190506118fc565b8683101561193e578489015161193a601f89168261184d565b8355505b6001600288020188555050505b505050505050565b5f61195d826111af565b6119678185611137565b93506119778185602086016111c3565b611980816114c0565b840191505092915050565b5f6040820190508181035f8301526119a38185611953565b905081810360208301526119b78184611953565b9050939250505056fea26469706673582212208ac6dbf5913c8816f0036dd82ef7b0a7c519f8a712a7575a13235ae159f17ebe64736f6c634300081c0033",
  "linkReferences": {},
  "deployedLinkReferences": {},
  "immutableReferences": {},
  "inputSourceName": "project/contracts/TokenRegistry.sol",
  "buildInfoId": "solc-0_8_28-8f994f902f85dbee1799c5186bd94b726cceede0"
}